{
  "_format": "hh-sol-artifact-1",
  "contractName": "SupplyChain",
  "sourceName": "contracts/SupplyChain.sol",
  "abi": [
    {
      "inputs": [],
      "stateMutability": "nonpayable",
      "type": "constructor"
    },
    {
      "inputs": [],
      "name": "AccessControlBadConfirmation",
      "type": "error"
    },
    {
      "inputs": [
        {
          "internalType": "address",
          "name": "account",
          "type": "address"
        },
        {
          "internalType": "bytes32",
          "name": "neededRole",
          "type": "bytes32"
        }
      ],
      "name": "AccessControlUnauthorizedAccount",
      "type": "error"
    },
    {
      "inputs": [
        {
          "internalType": "address",
          "name": "sender",
          "type": "address"
        },
        {
          "internalType": "uint256",
          "name": "tokenId",
          "type": "uint256"
        },
        {
          "internalType": "address",
          "name": "owner",
          "type": "address"
        }
      ],
      "name": "ERC721IncorrectOwner",
      "type": "error"
    },
    {
      "inputs": [
        {
          "internalType": "address",
          "name": "operator",
          "type": "address"
        },
        {
          "internalType": "uint256",
          "name": "tokenId",
          "type": "uint256"
        }
      ],
      "name": "ERC721InsufficientApproval",
      "type": "error"
    },
    {
      "inputs": [
        {
          "internalType": "address",
          "name": "approver",
          "type": "address"
        }
      ],
      "name": "ERC721InvalidApprover",
      "type": "error"
    },
    {
      "inputs": [
        {
          "internalType": "address",
          "name": "operator",
          "type": "address"
        }
      ],
      "name": "ERC721InvalidOperator",
      "type": "error"
    },
    {
      "inputs": [
        {
          "internalType": "address",
          "name": "owner",
          "type": "address"
        }
      ],
      "name": "ERC721InvalidOwner",
      "type": "error"
    },
    {
      "inputs": [
        {
          "internalType": "address",
          "name": "receiver",
          "type": "address"
        }
      ],
      "name": "ERC721InvalidReceiver",
      "type": "error"
    },
    {
      "inputs": [
        {
          "internalType": "address",
          "name": "sender",
          "type": "address"
        }
      ],
      "name": "ERC721InvalidSender",
      "type": "error"
    },
    {
      "inputs": [
        {
          "internalType": "uint256",
          "name": "tokenId",
          "type": "uint256"
        }
      ],
      "name": "ERC721NonexistentToken",
      "type": "error"
    },
    {
      "inputs": [
        {
          "internalType": "address",
          "name": "owner",
          "type": "address"
        }
      ],
      "name": "OwnableInvalidOwner",
      "type": "error"
    },
    {
      "inputs": [
        {
          "internalType": "address",
          "name": "account",
          "type": "address"
        }
      ],
      "name": "OwnableUnauthorizedAccount",
      "type": "error"
    },
    {
      "anonymous": false,
      "inputs": [
        {
          "indexed": true,
          "internalType": "address",
          "name": "owner",
          "type": "address"
        },
        {
          "indexed": true,
          "internalType": "address",
          "name": "approved",
          "type": "address"
        },
        {
          "indexed": true,
          "internalType": "uint256",
          "name": "tokenId",
          "type": "uint256"
        }
      ],
      "name": "Approval",
      "type": "event"
    },
    {
      "anonymous": false,
      "inputs": [
        {
          "indexed": true,
          "internalType": "address",
          "name": "owner",
          "type": "address"
        },
        {
          "indexed": true,
          "internalType": "address",
          "name": "operator",
          "type": "address"
        },
        {
          "indexed": false,
          "internalType": "bool",
          "name": "approved",
          "type": "bool"
        }
      ],
      "name": "ApprovalForAll",
      "type": "event"
    },
    {
      "anonymous": false,
      "inputs": [
        {
          "indexed": true,
          "internalType": "uint256",
          "name": "batchId",
          "type": "uint256"
        },
        {
          "indexed": false,
          "internalType": "string",
          "name": "batchName",
          "type": "string"
        },
        {
          "indexed": false,
          "internalType": "uint256",
          "name": "creationDate",
          "type": "uint256"
        },
        {
          "indexed": false,
          "internalType": "uint256",
          "name": "expirationDate",
          "type": "uint256"
        },
        {
          "indexed": false,
          "internalType": "address",
          "name": "manufacturer",
          "type": "address"
        }
      ],
      "name": "BatchCreated",
      "type": "event"
    },
    {
      "anonymous": false,
      "inputs": [
        {
          "indexed": true,
          "internalType": "uint256",
          "name": "batchId",
          "type": "uint256"
        },
        {
          "indexed": true,
          "internalType": "address",
          "name": "previousOwner",
          "type": "address"
        },
        {
          "indexed": true,
          "internalType": "address",
          "name": "newOwner",
          "type": "address"
        },
        {
          "indexed": false,
          "internalType": "uint256",
          "name": "timestamp",
          "type": "uint256"
        }
      ],
      "name": "BatchOwnershipTransferred",
      "type": "event"
    },
    {
      "anonymous": false,
      "inputs": [
        {
          "indexed": true,
          "internalType": "address",
          "name": "previousOwner",
          "type": "address"
        },
        {
          "indexed": true,
          "internalType": "address",
          "name": "newOwner",
          "type": "address"
        }
      ],
      "name": "OwnershipTransferred",
      "type": "event"
    },
    {
      "anonymous": false,
      "inputs": [
        {
          "indexed": true,
          "internalType": "uint256",
          "name": "productId",
          "type": "uint256"
        },
        {
          "indexed": false,
          "internalType": "string",
          "name": "productName",
          "type": "string"
        },
        {
          "indexed": false,
          "internalType": "uint256",
          "name": "batchId",
          "type": "uint256"
        }
      ],
      "name": "ProductCreated",
      "type": "event"
    },
    {
      "anonymous": false,
      "inputs": [
        {
          "indexed": true,
          "internalType": "bytes32",
          "name": "role",
          "type": "bytes32"
        },
        {
          "indexed": true,
          "internalType": "bytes32",
          "name": "previousAdminRole",
          "type": "bytes32"
        },
        {
          "indexed": true,
          "internalType": "bytes32",
          "name": "newAdminRole",
          "type": "bytes32"
        }
      ],
      "name": "RoleAdminChanged",
      "type": "event"
    },
    {
      "anonymous": false,
      "inputs": [
        {
          "indexed": true,
          "internalType": "bytes32",
          "name": "role",
          "type": "bytes32"
        },
        {
          "indexed": true,
          "internalType": "address",
          "name": "account",
          "type": "address"
        },
        {
          "indexed": true,
          "internalType": "address",
          "name": "sender",
          "type": "address"
        }
      ],
      "name": "RoleGranted",
      "type": "event"
    },
    {
      "anonymous": false,
      "inputs": [
        {
          "indexed": true,
          "internalType": "bytes32",
          "name": "role",
          "type": "bytes32"
        },
        {
          "indexed": true,
          "internalType": "address",
          "name": "account",
          "type": "address"
        },
        {
          "indexed": true,
          "internalType": "address",
          "name": "sender",
          "type": "address"
        }
      ],
      "name": "RoleRevoked",
      "type": "event"
    },
    {
      "anonymous": false,
      "inputs": [
        {
          "indexed": true,
          "internalType": "address",
          "name": "from",
          "type": "address"
        },
        {
          "indexed": true,
          "internalType": "address",
          "name": "to",
          "type": "address"
        },
        {
          "indexed": true,
          "internalType": "uint256",
          "name": "tokenId",
          "type": "uint256"
        }
      ],
      "name": "Transfer",
      "type": "event"
    },
    {
      "inputs": [],
      "name": "DEFAULT_ADMIN_ROLE",
      "outputs": [
        {
          "internalType": "bytes32",
          "name": "",
          "type": "bytes32"
        }
      ],
      "stateMutability": "view",
      "type": "function"
    },
    {
      "inputs": [],
      "name": "MANUFACTURER_ROLE",
      "outputs": [
        {
          "internalType": "bytes32",
          "name": "",
          "type": "bytes32"
        }
      ],
      "stateMutability": "view",
      "type": "function"
    },
    {
      "inputs": [],
      "name": "VERIFIER_ROLE",
      "outputs": [
        {
          "internalType": "bytes32",
          "name": "",
          "type": "bytes32"
        }
      ],
      "stateMutability": "view",
      "type": "function"
    },
    {
      "inputs": [
        {
          "internalType": "address",
          "name": "to",
          "type": "address"
        },
        {
          "internalType": "uint256",
          "name": "tokenId",
          "type": "uint256"
        }
      ],
      "name": "approve",
      "outputs": [],
      "stateMutability": "nonpayable",
      "type": "function"
    },
    {
      "inputs": [
        {
          "internalType": "address",
          "name": "owner",
          "type": "address"
        }
      ],
      "name": "balanceOf",
      "outputs": [
        {
          "internalType": "uint256",
          "name": "",
          "type": "uint256"
        }
      ],
      "stateMutability": "view",
      "type": "function"
    },
    {
      "inputs": [],
      "name": "batchIdCounter",
      "outputs": [
        {
          "internalType": "uint256",
          "name": "",
          "type": "uint256"
        }
      ],
      "stateMutability": "view",
      "type": "function"
    },
    {
      "inputs": [
        {
          "internalType": "uint256",
          "name": "",
          "type": "uint256"
        }
      ],
      "name": "batches",
      "outputs": [
        {
          "internalType": "uint256",
          "name": "batchId",
          "type": "uint256"
        },
        {
          "internalType": "string",
          "name": "batchName",
          "type": "string"
        },
        {
          "internalType": "uint256",
          "name": "creationDate",
          "type": "uint256"
        },
        {
          "internalType": "uint256",
          "name": "expirationDate",
          "type": "uint256"
        },
        {
          "internalType": "address",
          "name": "manufacturer",
          "type": "address"
        },
        {
          "internalType": "uint8",
          "name": "status",
          "type": "uint8"
        },
        {
          "internalType": "address",
          "name": "currentOwner",
          "type": "address"
        },
        {
          "internalType": "bool",
          "name": "isVerified",
          "type": "bool"
        }
      ],
      "stateMutability": "view",
      "type": "function"
    },
    {
      "inputs": [
        {
          "internalType": "string",
          "name": "_batchName",
          "type": "string"
        },
        {
          "internalType": "uint256",
          "name": "_creationDate",
          "type": "uint256"
        },
        {
          "internalType": "uint256",
          "name": "_expirationDate",
          "type": "uint256"
        },
        {
          "internalType": "uint8",
          "name": "_status",
          "type": "uint8"
        }
      ],
      "name": "createBatch",
      "outputs": [],
      "stateMutability": "nonpayable",
      "type": "function"
    },
    {
      "inputs": [
        {
          "internalType": "string",
          "name": "_productName",
          "type": "string"
        },
        {
          "internalType": "uint256",
          "name": "_batchId",
          "type": "uint256"
        }
      ],
      "name": "createProduct",
      "outputs": [],
      "stateMutability": "nonpayable",
      "type": "function"
    },
    {
      "inputs": [
        {
          "internalType": "uint256",
          "name": "tokenId",
          "type": "uint256"
        }
      ],
      "name": "getApproved",
      "outputs": [
        {
          "internalType": "address",
          "name": "",
          "type": "address"
        }
      ],
      "stateMutability": "view",
      "type": "function"
    },
    {
      "inputs": [
        {
          "internalType": "bytes32",
          "name": "role",
          "type": "bytes32"
        }
      ],
      "name": "getRoleAdmin",
      "outputs": [
        {
          "internalType": "bytes32",
          "name": "",
          "type": "bytes32"
        }
      ],
      "stateMutability": "view",
      "type": "function"
    },
    {
      "inputs": [
        {
          "internalType": "bytes32",
          "name": "role",
          "type": "bytes32"
        },
        {
          "internalType": "address",
          "name": "account",
          "type": "address"
        }
      ],
      "name": "grantRole",
      "outputs": [],
      "stateMutability": "nonpayable",
      "type": "function"
    },
    {
      "inputs": [
        {
          "internalType": "bytes32",
          "name": "role",
          "type": "bytes32"
        },
        {
          "internalType": "address",
          "name": "account",
          "type": "address"
        }
      ],
      "name": "hasRole",
      "outputs": [
        {
          "internalType": "bool",
          "name": "",
          "type": "bool"
        }
      ],
      "stateMutability": "view",
      "type": "function"
    },
    {
      "inputs": [
        {
          "internalType": "address",
          "name": "owner",
          "type": "address"
        },
        {
          "internalType": "address",
          "name": "operator",
          "type": "address"
        }
      ],
      "name": "isApprovedForAll",
      "outputs": [
        {
          "internalType": "bool",
          "name": "",
          "type": "bool"
        }
      ],
      "stateMutability": "view",
      "type": "function"
    },
    {
      "inputs": [],
      "name": "name",
      "outputs": [
        {
          "internalType": "string",
          "name": "",
          "type": "string"
        }
      ],
      "stateMutability": "view",
      "type": "function"
    },
    {
      "inputs": [],
      "name": "owner",
      "outputs": [
        {
          "internalType": "address",
          "name": "",
          "type": "address"
        }
      ],
      "stateMutability": "view",
      "type": "function"
    },
    {
      "inputs": [
        {
          "internalType": "uint256",
          "name": "tokenId",
          "type": "uint256"
        }
      ],
      "name": "ownerOf",
      "outputs": [
        {
          "internalType": "address",
          "name": "",
          "type": "address"
        }
      ],
      "stateMutability": "view",
      "type": "function"
    },
    {
      "inputs": [],
      "name": "productIdCounter",
      "outputs": [
        {
          "internalType": "uint256",
          "name": "",
          "type": "uint256"
        }
      ],
      "stateMutability": "view",
      "type": "function"
    },
    {
      "inputs": [
        {
          "internalType": "uint256",
          "name": "",
          "type": "uint256"
        }
      ],
      "name": "products",
      "outputs": [
        {
          "internalType": "uint256",
          "name": "productId",
          "type": "uint256"
        },
        {
          "internalType": "uint256",
          "name": "batchId",
          "type": "uint256"
        },
        {
          "internalType": "string",
          "name": "productName",
          "type": "string"
        },
        {
          "internalType": "bool",
          "name": "isAvailable",
          "type": "bool"
        }
      ],
      "stateMutability": "view",
      "type": "function"
    },
    {
      "inputs": [],
      "name": "renounceOwnership",
      "outputs": [],
      "stateMutability": "nonpayable",
      "type": "function"
    },
    {
      "inputs": [
        {
          "internalType": "bytes32",
          "name": "role",
          "type": "bytes32"
        },
        {
          "internalType": "address",
          "name": "callerConfirmation",
          "type": "address"
        }
      ],
      "name": "renounceRole",
      "outputs": [],
      "stateMutability": "nonpayable",
      "type": "function"
    },
    {
      "inputs": [
        {
          "internalType": "bytes32",
          "name": "role",
          "type": "bytes32"
        },
        {
          "internalType": "address",
          "name": "account",
          "type": "address"
        }
      ],
      "name": "revokeRole",
      "outputs": [],
      "stateMutability": "nonpayable",
      "type": "function"
    },
    {
      "inputs": [
        {
          "internalType": "address",
          "name": "from",
          "type": "address"
        },
        {
          "internalType": "address",
          "name": "to",
          "type": "address"
        },
        {
          "internalType": "uint256",
          "name": "tokenId",
          "type": "uint256"
        }
      ],
      "name": "safeTransferFrom",
      "outputs": [],
      "stateMutability": "nonpayable",
      "type": "function"
    },
    {
      "inputs": [
        {
          "internalType": "address",
          "name": "from",
          "type": "address"
        },
        {
          "internalType": "address",
          "name": "to",
          "type": "address"
        },
        {
          "internalType": "uint256",
          "name": "tokenId",
          "type": "uint256"
        },
        {
          "internalType": "bytes",
          "name": "data",
          "type": "bytes"
        }
      ],
      "name": "safeTransferFrom",
      "outputs": [],
      "stateMutability": "nonpayable",
      "type": "function"
    },
    {
      "inputs": [
        {
          "internalType": "address",
          "name": "operator",
          "type": "address"
        },
        {
          "internalType": "bool",
          "name": "approved",
          "type": "bool"
        }
      ],
      "name": "setApprovalForAll",
      "outputs": [],
      "stateMutability": "nonpayable",
      "type": "function"
    },
    {
      "inputs": [
        {
          "internalType": "bytes4",
          "name": "interfaceId",
          "type": "bytes4"
        }
      ],
      "name": "supportsInterface",
      "outputs": [
        {
          "internalType": "bool",
          "name": "",
          "type": "bool"
        }
      ],
      "stateMutability": "view",
      "type": "function"
    },
    {
      "inputs": [],
      "name": "symbol",
      "outputs": [
        {
          "internalType": "string",
          "name": "",
          "type": "string"
        }
      ],
      "stateMutability": "view",
      "type": "function"
    },
    {
      "inputs": [
        {
          "internalType": "uint256",
          "name": "tokenId",
          "type": "uint256"
        }
      ],
      "name": "tokenURI",
      "outputs": [
        {
          "internalType": "string",
          "name": "",
          "type": "string"
        }
      ],
      "stateMutability": "view",
      "type": "function"
    },
    {
      "inputs": [
        {
          "internalType": "uint256",
          "name": "_batchId",
          "type": "uint256"
        },
        {
          "internalType": "address",
          "name": "_newOwner",
          "type": "address"
        }
      ],
      "name": "transferBatchOwnership",
      "outputs": [],
      "stateMutability": "nonpayable",
      "type": "function"
    },
    {
      "inputs": [
        {
          "internalType": "address",
          "name": "from",
          "type": "address"
        },
        {
          "internalType": "address",
          "name": "to",
          "type": "address"
        },
        {
          "internalType": "uint256",
          "name": "tokenId",
          "type": "uint256"
        }
      ],
      "name": "transferFrom",
      "outputs": [],
      "stateMutability": "nonpayable",
      "type": "function"
    },
    {
      "inputs": [
        {
          "internalType": "address",
          "name": "newOwner",
          "type": "address"
        }
      ],
      "name": "transferOwnership",
      "outputs": [],
      "stateMutability": "nonpayable",
      "type": "function"
    }
  ],
  "bytecode": "0x6080604052600060085560006009553480156200001b57600080fd5b50336040518060400160405280600a81526020017f4261746368546f6b656e000000000000000000000000000000000000000000008152506040518060400160405280600581526020017f424154434800000000000000000000000000000000000000000000000000000081525081600190816200009a919062000607565b508060029081620000ac919062000607565b505050600073ffffffffffffffffffffffffffffffffffffffff168173ffffffffffffffffffffffffffffffffffffffff1603620001245760006040517f1e4fbdf70000000000000000000000000000000000000000000000000000000081526004016200011b919062000733565b60405180910390fd5b62000135816200015260201b60201c565b506200014b6000801b336200021860201b60201c565b5062000750565b6000600760009054906101000a900473ffffffffffffffffffffffffffffffffffffffff16905081600760006101000a81548173ffffffffffffffffffffffffffffffffffffffff021916908373ffffffffffffffffffffffffffffffffffffffff1602179055508173ffffffffffffffffffffffffffffffffffffffff168173ffffffffffffffffffffffffffffffffffffffff167f8be0079c531659141344cd1fd0a4f28419497f9722a3daafe3b4186f6b6457e060405160405180910390a35050565b60006200022c83836200031b60201b60201c565b6200031057600160008085815260200190815260200160002060000160008473ffffffffffffffffffffffffffffffffffffffff1673ffffffffffffffffffffffffffffffffffffffff16815260200190815260200160002060006101000a81548160ff021916908315150217905550620002ac6200038560201b60201c565b73ffffffffffffffffffffffffffffffffffffffff168273ffffffffffffffffffffffffffffffffffffffff16847f2f8788117e7eff1d82e926ec794901d17c78024a50270940304540a733656f0d60405160405180910390a46001905062000315565b600090505b92915050565b600080600084815260200190815260200160002060000160008373ffffffffffffffffffffffffffffffffffffffff1673ffffffffffffffffffffffffffffffffffffffff16815260200190815260200160002060009054906101000a900460ff16905092915050565b600033905090565b600081519050919050565b7f4e487b7100000000000000000000000000000000000000000000000000000000600052604160045260246000fd5b7f4e487b7100000000000000000000000000000000000000000000000000000000600052602260045260246000fd5b600060028204905060018216806200040f57607f821691505b602082108103620004255762000424620003c7565b5b50919050565b60008190508160005260206000209050919050565b60006020601f8301049050919050565b600082821b905092915050565b6000600883026200048f7fffffffffffffffffffffffffffffffffffffffffffffffffffffffffffffffff8262000450565b6200049b868362000450565b95508019841693508086168417925050509392505050565b6000819050919050565b6000819050919050565b6000620004e8620004e2620004dc84620004b3565b620004bd565b620004b3565b9050919050565b6000819050919050565b6200050483620004c7565b6200051c6200051382620004ef565b8484546200045d565b825550505050565b600090565b6200053362000524565b62000540818484620004f9565b505050565b5b8181101562000568576200055c60008262000529565b60018101905062000546565b5050565b601f821115620005b75762000581816200042b565b6200058c8462000440565b810160208510156200059c578190505b620005b4620005ab8562000440565b83018262000545565b50505b505050565b600082821c905092915050565b6000620005dc60001984600802620005bc565b1980831691505092915050565b6000620005f78383620005c9565b9150826002028217905092915050565b62000612826200038d565b67ffffffffffffffff8111156200062e576200062d62000398565b5b6200063a8254620003f6565b620006478282856200056c565b600060209050601f8311600181146200067f57600084156200066a578287015190505b620006768582620005e9565b865550620006e6565b601f1984166200068f866200042b565b60005b82811015620006b95784890151825560018201915060208501945060208101905062000692565b86831015620006d95784890151620006d5601f891682620005c9565b8355505b6001600288020188555050505b505050505050565b600073ffffffffffffffffffffffffffffffffffffffff82169050919050565b60006200071b82620006ee565b9050919050565b6200072d816200070e565b82525050565b60006020820190506200074a600083018462000722565b92915050565b613ed480620007606000396000f3fe608060405234801561001057600080fd5b50600436106101e55760003560e01c806384bc62d71161010f578063b32c4d8d116100a2578063e7705db611610071578063e7705db614610598578063e9300c6c146105b6578063e985e9c5146105d2578063f2fde38b14610602576101e5565b8063b32c4d8d146104f9578063b88d4fde14610530578063c87b56dd1461054c578063d547741f1461057c576101e5565b8063965288b0116100de578063965288b014610485578063a217fddf146104a3578063a22cb465146104c1578063a45751a5146104dd576101e5565b806384bc62d7146103fd5780638da5cb5b1461041957806391d148541461043757806395d89b4114610467576101e5565b8063342ae8c61161018757806370a082311161015657806370a0823114610372578063715018a6146103a257806378bede29146103ac5780637acc0b20146103ca576101e5565b8063342ae8c6146102ec57806336568abe1461030a57806342842e0e146103265780636352211e14610342576101e5565b8063095ea7b3116101c3578063095ea7b31461026857806323b872dd14610284578063248a9ca3146102a05780632f2ff15d146102d0576101e5565b806301ffc9a7146101ea57806306fdde031461021a578063081812fc14610238575b600080fd5b61020460048036038101906101ff9190612d8a565b61061e565b6040516102119190612dd2565b60405180910390f35b610222610640565b60405161022f9190612e7d565b60405180910390f35b610252600480360381019061024d9190612ed5565b6106d2565b60405161025f9190612f43565b60405180910390f35b610282600480360381019061027d9190612f8a565b6106ee565b005b61029e60048036038101906102999190612fca565b610704565b005b6102ba60048036038101906102b59190613053565b610806565b6040516102c7919061308f565b60405180910390f35b6102ea60048036038101906102e591906130aa565b610825565b005b6102f4610847565b60405161030191906130f9565b60405180910390f35b610324600480360381019061031f91906130aa565b61084d565b005b610340600480360381019061033b9190612fca565b6108c8565b005b61035c60048036038101906103579190612ed5565b6108e8565b6040516103699190612f43565b60405180910390f35b61038c60048036038101906103879190613114565b6108fa565b60405161039991906130f9565b60405180910390f35b6103aa6109b4565b005b6103b46109c8565b6040516103c191906130f9565b60405180910390f35b6103e460048036038101906103df9190612ed5565b6109ce565b6040516103f49493929190613141565b60405180910390f35b6104176004803603810190610412919061318d565b610a93565b005b610421610d7e565b60405161042e9190612f43565b60405180910390f35b610451600480360381019061044c91906130aa565b610da8565b60405161045e9190612dd2565b60405180910390f35b61046f610e12565b60405161047c9190612e7d565b60405180910390f35b61048d610ea4565b60405161049a919061308f565b60405180910390f35b6104ab610ec8565b6040516104b8919061308f565b60405180910390f35b6104db60048036038101906104d691906131f9565b610ecf565b005b6104f760048036038101906104f291906133a7565b610ee5565b005b610513600480360381019061050e9190612ed5565b611303565b604051610527989796959493929190613439565b60405180910390f35b61054a6004803603810190610545919061355f565b61142d565b005b61056660048036038101906105619190612ed5565b611452565b6040516105739190612e7d565b60405180910390f35b610596600480360381019061059191906130aa565b6114bb565b005b6105a06114dd565b6040516105ad919061308f565b60405180910390f35b6105d060048036038101906105cb91906135e2565b611501565b005b6105ec60048036038101906105e7919061363e565b6116ab565b6040516105f99190612dd2565b60405180910390f35b61061c60048036038101906106179190613114565b61173f565b005b6000610629826117c5565b8061063957506106388261183f565b5b9050919050565b60606001805461064f906136ad565b80601f016020809104026020016040519081016040528092919081815260200182805461067b906136ad565b80156106c85780601f1061069d576101008083540402835291602001916106c8565b820191906000526020600020905b8154815290600101906020018083116106ab57829003601f168201915b5050505050905090565b60006106dd82611921565b506106e7826119a9565b9050919050565b61070082826106fb6119e6565b6119ee565b5050565b600073ffffffffffffffffffffffffffffffffffffffff168273ffffffffffffffffffffffffffffffffffffffff16036107765760006040517f64a0ae9200000000000000000000000000000000000000000000000000000000815260040161076d9190612f43565b60405180910390fd5b600061078a83836107856119e6565b611a00565b90508373ffffffffffffffffffffffffffffffffffffffff168173ffffffffffffffffffffffffffffffffffffffff1614610800578382826040517f64283d7b0000000000000000000000000000000000000000000000000000000081526004016107f7939291906136de565b60405180910390fd5b50505050565b6000806000838152602001908152602001600020600101549050919050565b61082e82610806565b61083781611c1a565b6108418383611c2e565b50505050565b60095481565b6108556119e6565b73ffffffffffffffffffffffffffffffffffffffff168173ffffffffffffffffffffffffffffffffffffffff16146108b9576040517f6697b23200000000000000000000000000000000000000000000000000000000815260040160405180910390fd5b6108c38282611d1f565b505050565b6108e38383836040518060200160405280600081525061142d565b505050565b60006108f382611921565b9050919050565b60008073ffffffffffffffffffffffffffffffffffffffff168273ffffffffffffffffffffffffffffffffffffffff160361096d5760006040517f89c62b640000000000000000000000000000000000000000000000000000000081526004016109649190612f43565b60405180910390fd5b600460008373ffffffffffffffffffffffffffffffffffffffff1673ffffffffffffffffffffffffffffffffffffffff168152602001908152602001600020549050919050565b6109bc611e11565b6109c66000611e98565b565b60085481565b600b6020528060005260406000206000915090508060000154908060010154908060020180546109fd906136ad565b80601f0160208091040260200160405190810160405280929190818152602001828054610a29906136ad565b8015610a765780601f10610a4b57610100808354040283529160200191610a76565b820191906000526020600020905b815481529060010190602001808311610a5957829003601f168201915b5050505050908060030160009054906101000a900460ff16905084565b600854821115610ad8576040517f08c379a0000000000000000000000000000000000000000000000000000000008152600401610acf90613761565b60405180910390fd5b6000600a600084815260200190815260200160002090508060060160019054906101000a900473ffffffffffffffffffffffffffffffffffffffff1673ffffffffffffffffffffffffffffffffffffffff163373ffffffffffffffffffffffffffffffffffffffff1614610b81576040517f08c379a0000000000000000000000000000000000000000000000000000000008152600401610b78906137f3565b60405180910390fd5b600073ffffffffffffffffffffffffffffffffffffffff168273ffffffffffffffffffffffffffffffffffffffff1603610bf0576040517f08c379a0000000000000000000000000000000000000000000000000000000008152600401610be79061385f565b60405180910390fd5b60008160060160019054906101000a900473ffffffffffffffffffffffffffffffffffffffff1690508160070160405180604001604052808573ffffffffffffffffffffffffffffffffffffffff16815260200142815250908060018154018082558091505060019003906000526020600020906002020160009091909190915060008201518160000160006101000a81548173ffffffffffffffffffffffffffffffffffffffff021916908373ffffffffffffffffffffffffffffffffffffffff160217905550602082015181600101555050828260060160016101000a81548173ffffffffffffffffffffffffffffffffffffffff021916908373ffffffffffffffffffffffffffffffffffffffff160217905550610d12818486611f5e565b8273ffffffffffffffffffffffffffffffffffffffff168173ffffffffffffffffffffffffffffffffffffffff16857f18cbc15f23b3eeed788c818e5394b88a758e6b20e0097ebbbf8973e0a3ccb57942604051610d7091906130f9565b60405180910390a450505050565b6000600760009054906101000a900473ffffffffffffffffffffffffffffffffffffffff16905090565b600080600084815260200190815260200160002060000160008373ffffffffffffffffffffffffffffffffffffffff1673ffffffffffffffffffffffffffffffffffffffff16815260200190815260200160002060009054906101000a900460ff16905092915050565b606060028054610e21906136ad565b80601f0160208091040260200160405190810160405280929190818152602001828054610e4d906136ad565b8015610e9a5780601f10610e6f57610100808354040283529160200191610e9a565b820191906000526020600020905b815481529060010190602001808311610e7d57829003601f168201915b5050505050905090565b7feefb95e842a3287179d933b4460be539a1d5af11aa8b325bb45c5c8dc92de4ed81565b6000801b81565b610ee1610eda6119e6565b83836120cb565b5050565b7feefb95e842a3287179d933b4460be539a1d5af11aa8b325bb45c5c8dc92de4ed610f0f81611c1a565b600160086000828254610f2291906138ae565b9250508190555060006008549050600060405180604001604052803373ffffffffffffffffffffffffffffffffffffffff1681526020014281525090506000600a6000848152602001908152602001600020905080600a60008581526020019081526020016000206000820154816000015560018201816001019081610fa89190613aa4565b5060028201548160020155600382015481600301556004820160009054906101000a900473ffffffffffffffffffffffffffffffffffffffff168160040160006101000a81548173ffffffffffffffffffffffffffffffffffffffff021916908373ffffffffffffffffffffffffffffffffffffffff160217905550600582018160050190805461103a929190612ba0565b506006820160009054906101000a900460ff168160060160006101000a81548160ff021916908360ff1602179055506006820160019054906101000a900473ffffffffffffffffffffffffffffffffffffffff168160060160016101000a81548173ffffffffffffffffffffffffffffffffffffffff021916908373ffffffffffffffffffffffffffffffffffffffff1602179055506006820160159054906101000a900460ff168160060160156101000a81548160ff0219169083151502179055506007820181600701908054611113929190612bf2565b50905050828160000181905550878160010190816111319190613b8c565b508681600201819055508581600301819055508060050160009080600181540180825580915050600190039060005260206000200160009091909190915055338160040160006101000a81548173ffffffffffffffffffffffffffffffffffffffff021916908373ffffffffffffffffffffffffffffffffffffffff160217905550848160060160006101000a81548160ff021916908360ff160217905550338160060160016101000a81548173ffffffffffffffffffffffffffffffffffffffff021916908373ffffffffffffffffffffffffffffffffffffffff16021790555060008160060160156101000a81548160ff0219169083151502179055508060070182908060018154018082558091505060019003906000526020600020906002020160009091909190915060008201518160000160006101000a81548173ffffffffffffffffffffffffffffffffffffffff021916908373ffffffffffffffffffffffffffffffffffffffff1602179055506020820151816001015550506112bb338461223a565b827f57eccab9fd2197ffaebc33dd09dd044a6e338279f01f5eb31bb6d1f0e93a0e81898989336040516112f19493929190613c5e565b60405180910390a25050505050505050565b600a60205280600052604060002060009150905080600001549080600101805461132c906136ad565b80601f0160208091040260200160405190810160405280929190818152602001828054611358906136ad565b80156113a55780601f1061137a576101008083540402835291602001916113a5565b820191906000526020600020905b81548152906001019060200180831161138857829003601f168201915b5050505050908060020154908060030154908060040160009054906101000a900473ffffffffffffffffffffffffffffffffffffffff16908060060160009054906101000a900460ff16908060060160019054906101000a900473ffffffffffffffffffffffffffffffffffffffff16908060060160159054906101000a900460ff16905088565b611438848484610704565b61144c6114436119e6565b85858585612258565b50505050565b606061145d82611921565b506000611468612409565b9050600081511161148857604051806020016040528060008152506114b3565b8061149284612420565b6040516020016114a3929190613ce6565b6040516020818303038152906040525b915050919050565b6114c482610806565b6114cd81611c1a565b6114d78383611d1f565b50505050565b7f0ce23c3e399818cfee81a7ab0880f714e53d7672b08df0fa62f2843416e1ea0981565b7feefb95e842a3287179d933b4460be539a1d5af11aa8b325bb45c5c8dc92de4ed61152b81611c1a565b81600a60008481526020019081526020016000206000015414611583576040517f08c379a000000000000000000000000000000000000000000000000000000000815260040161157a90613761565b60405180910390fd5b60016009600082825461159691906138ae565b92505081905550600060095490506000604051806080016040528083815260200185815260200186815260200160011515815250905080600b6000848152602001908152602001600020600082015181600001556020820151816001015560408201518160020190816116099190613b8c565b5060608201518160030160006101000a81548160ff021916908315150217905550905050600a6000858152602001908152602001600020600501829080600181540180825580915050600190039060005260206000200160009091909190915055817f418d4005ee80a6584eef7f51de08850f7f79c3e7b464f15ef3f236423d964b08868660405161169c929190613d0a565b60405180910390a25050505050565b6000600660008473ffffffffffffffffffffffffffffffffffffffff1673ffffffffffffffffffffffffffffffffffffffff16815260200190815260200160002060008373ffffffffffffffffffffffffffffffffffffffff1673ffffffffffffffffffffffffffffffffffffffff16815260200190815260200160002060009054906101000a900460ff16905092915050565b611747611e11565b600073ffffffffffffffffffffffffffffffffffffffff168173ffffffffffffffffffffffffffffffffffffffff16036117b95760006040517f1e4fbdf70000000000000000000000000000000000000000000000000000000081526004016117b09190612f43565b60405180910390fd5b6117c281611e98565b50565b60007f7965db0b000000000000000000000000000000000000000000000000000000007bffffffffffffffffffffffffffffffffffffffffffffffffffffffff1916827bffffffffffffffffffffffffffffffffffffffffffffffffffffffff191614806118385750611837826124ee565b5b9050919050565b60007f80ac58cd000000000000000000000000000000000000000000000000000000007bffffffffffffffffffffffffffffffffffffffffffffffffffffffff1916827bffffffffffffffffffffffffffffffffffffffffffffffffffffffff1916148061190a57507f5b5e139f000000000000000000000000000000000000000000000000000000007bffffffffffffffffffffffffffffffffffffffffffffffffffffffff1916827bffffffffffffffffffffffffffffffffffffffffffffffffffffffff1916145b8061191a5750611919826117c5565b5b9050919050565b60008061192d83612558565b9050600073ffffffffffffffffffffffffffffffffffffffff168173ffffffffffffffffffffffffffffffffffffffff16036119a057826040517f7e27328900000000000000000000000000000000000000000000000000000000815260040161199791906130f9565b60405180910390fd5b80915050919050565b60006005600083815260200190815260200160002060009054906101000a900473ffffffffffffffffffffffffffffffffffffffff169050919050565b600033905090565b6119fb8383836001612595565b505050565b600080611a0c84612558565b9050600073ffffffffffffffffffffffffffffffffffffffff168373ffffffffffffffffffffffffffffffffffffffff1614611a4e57611a4d81848661275a565b5b600073ffffffffffffffffffffffffffffffffffffffff168173ffffffffffffffffffffffffffffffffffffffff1614611adf57611a90600085600080612595565b6001600460008373ffffffffffffffffffffffffffffffffffffffff1673ffffffffffffffffffffffffffffffffffffffff168152602001908152602001600020600082825403925050819055505b600073ffffffffffffffffffffffffffffffffffffffff168573ffffffffffffffffffffffffffffffffffffffff1614611b62576001600460008773ffffffffffffffffffffffffffffffffffffffff1673ffffffffffffffffffffffffffffffffffffffff168152602001908152602001600020600082825401925050819055505b846003600086815260200190815260200160002060006101000a81548173ffffffffffffffffffffffffffffffffffffffff021916908373ffffffffffffffffffffffffffffffffffffffff160217905550838573ffffffffffffffffffffffffffffffffffffffff168273ffffffffffffffffffffffffffffffffffffffff167fddf252ad1be2c89b69c2b068fc378daa952ba7f163c4a11628f55a4df523b3ef60405160405180910390a4809150509392505050565b611c2b81611c266119e6565b61281e565b50565b6000611c3a8383610da8565b611d1457600160008085815260200190815260200160002060000160008473ffffffffffffffffffffffffffffffffffffffff1673ffffffffffffffffffffffffffffffffffffffff16815260200190815260200160002060006101000a81548160ff021916908315150217905550611cb16119e6565b73ffffffffffffffffffffffffffffffffffffffff168273ffffffffffffffffffffffffffffffffffffffff16847f2f8788117e7eff1d82e926ec794901d17c78024a50270940304540a733656f0d60405160405180910390a460019050611d19565b600090505b92915050565b6000611d2b8383610da8565b15611e0657600080600085815260200190815260200160002060000160008473ffffffffffffffffffffffffffffffffffffffff1673ffffffffffffffffffffffffffffffffffffffff16815260200190815260200160002060006101000a81548160ff021916908315150217905550611da36119e6565b73ffffffffffffffffffffffffffffffffffffffff168273ffffffffffffffffffffffffffffffffffffffff16847ff6391f5c32d9c69d2a47ea670b442974b53935d1edc7fd64eb21e047a839171b60405160405180910390a460019050611e0b565b600090505b92915050565b611e196119e6565b73ffffffffffffffffffffffffffffffffffffffff16611e37610d7e565b73ffffffffffffffffffffffffffffffffffffffff1614611e9657611e5a6119e6565b6040517f118cdaa7000000000000000000000000000000000000000000000000000000008152600401611e8d9190612f43565b60405180910390fd5b565b6000600760009054906101000a900473ffffffffffffffffffffffffffffffffffffffff16905081600760006101000a81548173ffffffffffffffffffffffffffffffffffffffff021916908373ffffffffffffffffffffffffffffffffffffffff1602179055508173ffffffffffffffffffffffffffffffffffffffff168173ffffffffffffffffffffffffffffffffffffffff167f8be0079c531659141344cd1fd0a4f28419497f9722a3daafe3b4186f6b6457e060405160405180910390a35050565b600073ffffffffffffffffffffffffffffffffffffffff168273ffffffffffffffffffffffffffffffffffffffff1603611fd05760006040517f64a0ae92000000000000000000000000000000000000000000000000000000008152600401611fc79190612f43565b60405180910390fd5b6000611fde83836000611a00565b9050600073ffffffffffffffffffffffffffffffffffffffff168173ffffffffffffffffffffffffffffffffffffffff160361205157816040517f7e27328900000000000000000000000000000000000000000000000000000000815260040161204891906130f9565b60405180910390fd5b8373ffffffffffffffffffffffffffffffffffffffff168173ffffffffffffffffffffffffffffffffffffffff16146120c5578382826040517f64283d7b0000000000000000000000000000000000000000000000000000000081526004016120bc939291906136de565b60405180910390fd5b50505050565b600073ffffffffffffffffffffffffffffffffffffffff168273ffffffffffffffffffffffffffffffffffffffff160361213c57816040517f5b08ba180000000000000000000000000000000000000000000000000000000081526004016121339190612f43565b60405180910390fd5b80600660008573ffffffffffffffffffffffffffffffffffffffff1673ffffffffffffffffffffffffffffffffffffffff16815260200190815260200160002060008473ffffffffffffffffffffffffffffffffffffffff1673ffffffffffffffffffffffffffffffffffffffff16815260200190815260200160002060006101000a81548160ff0219169083151502179055508173ffffffffffffffffffffffffffffffffffffffff168373ffffffffffffffffffffffffffffffffffffffff167f17307eab39ab6107e8899845ad3d59bd9653f200f220920489ca2b5937696c318360405161222d9190612dd2565b60405180910390a3505050565b61225482826040518060200160405280600081525061286f565b5050565b60008373ffffffffffffffffffffffffffffffffffffffff163b1115612402578273ffffffffffffffffffffffffffffffffffffffff1663150b7a02868685856040518563ffffffff1660e01b81526004016122b79493929190613d8f565b6020604051808303816000875af19250505080156122f357506040513d601f19601f820116820180604052508101906122f09190613df0565b60015b612377573d8060008114612323576040519150601f19603f3d011682016040523d82523d6000602084013e612328565b606091505b50600081510361236f57836040517f64a0ae920000000000000000000000000000000000000000000000000000000081526004016123669190612f43565b60405180910390fd5b805181602001fd5b63150b7a0260e01b7bffffffffffffffffffffffffffffffffffffffffffffffffffffffff1916817bffffffffffffffffffffffffffffffffffffffffffffffffffffffff19161461240057836040517f64a0ae920000000000000000000000000000000000000000000000000000000081526004016123f79190612f43565b60405180910390fd5b505b5050505050565b606060405180602001604052806000815250905090565b60606000600161242f84612893565b01905060008167ffffffffffffffff81111561244e5761244d613243565b5b6040519080825280601f01601f1916602001820160405280156124805781602001600182028036833780820191505090505b509050600082602001820190505b6001156124e3578080600190039150507f3031323334353637383961626364656600000000000000000000000000000000600a86061a8153600a85816124d7576124d6613e1d565b5b0494506000850361248e575b819350505050919050565b60007f01ffc9a7000000000000000000000000000000000000000000000000000000007bffffffffffffffffffffffffffffffffffffffffffffffffffffffff1916827bffffffffffffffffffffffffffffffffffffffffffffffffffffffff1916149050919050565b60006003600083815260200190815260200160002060009054906101000a900473ffffffffffffffffffffffffffffffffffffffff169050919050565b80806125ce5750600073ffffffffffffffffffffffffffffffffffffffff168273ffffffffffffffffffffffffffffffffffffffff1614155b156127025760006125de84611921565b9050600073ffffffffffffffffffffffffffffffffffffffff168373ffffffffffffffffffffffffffffffffffffffff161415801561264957508273ffffffffffffffffffffffffffffffffffffffff168173ffffffffffffffffffffffffffffffffffffffff1614155b801561265c575061265a81846116ab565b155b1561269e57826040517fa9fbf51f0000000000000000000000000000000000000000000000000000000081526004016126959190612f43565b60405180910390fd5b811561270057838573ffffffffffffffffffffffffffffffffffffffff168273ffffffffffffffffffffffffffffffffffffffff167f8c5be1e5ebec7d5bd14f71427d1e84f3dd0314c0f7b2291e5b200ac8c7c3b92560405160405180910390a45b505b836005600085815260200190815260200160002060006101000a81548173ffffffffffffffffffffffffffffffffffffffff021916908373ffffffffffffffffffffffffffffffffffffffff16021790555050505050565b6127658383836129e6565b61281957600073ffffffffffffffffffffffffffffffffffffffff168373ffffffffffffffffffffffffffffffffffffffff16036127da57806040517f7e2732890000000000000000000000000000000000000000000000000000000081526004016127d191906130f9565b60405180910390fd5b81816040517f177e802f000000000000000000000000000000000000000000000000000000008152600401612810929190613e4c565b60405180910390fd5b505050565b6128288282610da8565b61286b5780826040517fe2517d3f000000000000000000000000000000000000000000000000000000008152600401612862929190613e75565b60405180910390fd5b5050565b6128798383612aa7565b61288e6128846119e6565b6000858585612258565b505050565b600080600090507a184f03e93ff9f4daa797ed6e38ed64bf6a1f01000000000000000083106128f1577a184f03e93ff9f4daa797ed6e38ed64bf6a1f01000000000000000083816128e7576128e6613e1d565b5b0492506040810190505b6d04ee2d6d415b85acef8100000000831061292e576d04ee2d6d415b85acef8100000000838161292457612923613e1d565b5b0492506020810190505b662386f26fc10000831061295d57662386f26fc10000838161295357612952613e1d565b5b0492506010810190505b6305f5e1008310612986576305f5e100838161297c5761297b613e1d565b5b0492506008810190505b61271083106129ab5761271083816129a1576129a0613e1d565b5b0492506004810190505b606483106129ce57606483816129c4576129c3613e1d565b5b0492506002810190505b600a83106129dd576001810190505b80915050919050565b60008073ffffffffffffffffffffffffffffffffffffffff168373ffffffffffffffffffffffffffffffffffffffff1614158015612a9e57508273ffffffffffffffffffffffffffffffffffffffff168473ffffffffffffffffffffffffffffffffffffffff161480612a5f5750612a5e84846116ab565b5b80612a9d57508273ffffffffffffffffffffffffffffffffffffffff16612a85836119a9565b73ffffffffffffffffffffffffffffffffffffffff16145b5b90509392505050565b600073ffffffffffffffffffffffffffffffffffffffff168273ffffffffffffffffffffffffffffffffffffffff1603612b195760006040517f64a0ae92000000000000000000000000000000000000000000000000000000008152600401612b109190612f43565b60405180910390fd5b6000612b2783836000611a00565b9050600073ffffffffffffffffffffffffffffffffffffffff168173ffffffffffffffffffffffffffffffffffffffff1614612b9b5760006040517f73c6ac6e000000000000000000000000000000000000000000000000000000008152600401612b929190612f43565b60405180910390fd5b505050565b828054828255906000526020600020908101928215612be15760005260206000209182015b82811115612be0578254825591600101919060010190612bc5565b5b509050612bee9190612cbb565b5090565b828054828255906000526020600020906002028101928215612caa5760005260206000209160020282015b82811115612ca95782826000820160009054906101000a900473ffffffffffffffffffffffffffffffffffffffff168160000160006101000a81548173ffffffffffffffffffffffffffffffffffffffff021916908373ffffffffffffffffffffffffffffffffffffffff16021790555060018201548160010155505091600201919060020190612c1d565b5b509050612cb79190612cd8565b5090565b5b80821115612cd4576000816000905550600101612cbc565b5090565b5b80821115612d1a57600080820160006101000a81549073ffffffffffffffffffffffffffffffffffffffff0219169055600182016000905550600201612cd9565b5090565b6000604051905090565b600080fd5b600080fd5b60007fffffffff0000000000000000000000000000000000000000000000000000000082169050919050565b612d6781612d32565b8114612d7257600080fd5b50565b600081359050612d8481612d5e565b92915050565b600060208284031215612da057612d9f612d28565b5b6000612dae84828501612d75565b91505092915050565b60008115159050919050565b612dcc81612db7565b82525050565b6000602082019050612de76000830184612dc3565b92915050565b600081519050919050565b600082825260208201905092915050565b60005b83811015612e27578082015181840152602081019050612e0c565b60008484015250505050565b6000601f19601f8301169050919050565b6000612e4f82612ded565b612e598185612df8565b9350612e69818560208601612e09565b612e7281612e33565b840191505092915050565b60006020820190508181036000830152612e978184612e44565b905092915050565b6000819050919050565b612eb281612e9f565b8114612ebd57600080fd5b50565b600081359050612ecf81612ea9565b92915050565b600060208284031215612eeb57612eea612d28565b5b6000612ef984828501612ec0565b91505092915050565b600073ffffffffffffffffffffffffffffffffffffffff82169050919050565b6000612f2d82612f02565b9050919050565b612f3d81612f22565b82525050565b6000602082019050612f586000830184612f34565b92915050565b612f6781612f22565b8114612f7257600080fd5b50565b600081359050612f8481612f5e565b92915050565b60008060408385031215612fa157612fa0612d28565b5b6000612faf85828601612f75565b9250506020612fc085828601612ec0565b9150509250929050565b600080600060608486031215612fe357612fe2612d28565b5b6000612ff186828701612f75565b935050602061300286828701612f75565b925050604061301386828701612ec0565b9150509250925092565b6000819050919050565b6130308161301d565b811461303b57600080fd5b50565b60008135905061304d81613027565b92915050565b60006020828403121561306957613068612d28565b5b60006130778482850161303e565b91505092915050565b6130898161301d565b82525050565b60006020820190506130a46000830184613080565b92915050565b600080604083850312156130c1576130c0612d28565b5b60006130cf8582860161303e565b92505060206130e085828601612f75565b9150509250929050565b6130f381612e9f565b82525050565b600060208201905061310e60008301846130ea565b92915050565b60006020828403121561312a57613129612d28565b5b600061313884828501612f75565b91505092915050565b600060808201905061315660008301876130ea565b61316360208301866130ea565b81810360408301526131758185612e44565b90506131846060830184612dc3565b95945050505050565b600080604083850312156131a4576131a3612d28565b5b60006131b285828601612ec0565b92505060206131c385828601612f75565b9150509250929050565b6131d681612db7565b81146131e157600080fd5b50565b6000813590506131f3816131cd565b92915050565b600080604083850312156132105761320f612d28565b5b600061321e85828601612f75565b925050602061322f858286016131e4565b9150509250929050565b600080fd5b600080fd5b7f4e487b7100000000000000000000000000000000000000000000000000000000600052604160045260246000fd5b61327b82612e33565b810181811067ffffffffffffffff8211171561329a57613299613243565b5b80604052505050565b60006132ad612d1e565b90506132b98282613272565b919050565b600067ffffffffffffffff8211156132d9576132d8613243565b5b6132e282612e33565b9050602081019050919050565b82818337600083830152505050565b600061331161330c846132be565b6132a3565b90508281526020810184848401111561332d5761332c61323e565b5b6133388482856132ef565b509392505050565b600082601f83011261335557613354613239565b5b81356133658482602086016132fe565b91505092915050565b600060ff82169050919050565b6133848161336e565b811461338f57600080fd5b50565b6000813590506133a18161337b565b92915050565b600080600080608085870312156133c1576133c0612d28565b5b600085013567ffffffffffffffff8111156133df576133de612d2d565b5b6133eb87828801613340565b94505060206133fc87828801612ec0565b935050604061340d87828801612ec0565b925050606061341e87828801613392565b91505092959194509250565b6134338161336e565b82525050565b60006101008201905061344f600083018b6130ea565b8181036020830152613461818a612e44565b905061347060408301896130ea565b61347d60608301886130ea565b61348a6080830187612f34565b61349760a083018661342a565b6134a460c0830185612f34565b6134b160e0830184612dc3565b9998505050505050505050565b600067ffffffffffffffff8211156134d9576134d8613243565b5b6134e282612e33565b9050602081019050919050565b60006135026134fd846134be565b6132a3565b90508281526020810184848401111561351e5761351d61323e565b5b6135298482856132ef565b509392505050565b600082601f83011261354657613545613239565b5b81356135568482602086016134ef565b91505092915050565b6000806000806080858703121561357957613578612d28565b5b600061358787828801612f75565b945050602061359887828801612f75565b93505060406135a987828801612ec0565b925050606085013567ffffffffffffffff8111156135ca576135c9612d2d565b5b6135d687828801613531565b91505092959194509250565b600080604083850312156135f9576135f8612d28565b5b600083013567ffffffffffffffff81111561361757613616612d2d565b5b61362385828601613340565b925050602061363485828601612ec0565b9150509250929050565b6000806040838503121561365557613654612d28565b5b600061366385828601612f75565b925050602061367485828601612f75565b9150509250929050565b7f4e487b7100000000000000000000000000000000000000000000000000000000600052602260045260246000fd5b600060028204905060018216806136c557607f821691505b6020821081036136d8576136d761367e565b5b50919050565b60006060820190506136f36000830186612f34565b61370060208301856130ea565b61370d6040830184612f34565b949350505050565b7f426174636820646f6573206e6f74206578697374000000000000000000000000600082015250565b600061374b601483612df8565b915061375682613715565b602082019050919050565b6000602082019050818103600083015261377a8161373e565b9050919050565b7f4f6e6c79207468652063757272656e74206f776e65722063616e207472616e7360008201527f666572206f776e65727368697000000000000000000000000000000000000000602082015250565b60006137dd602d83612df8565b91506137e882613781565b604082019050919050565b6000602082019050818103600083015261380c816137d0565b9050919050565b7f4e6577206f776e657220616464726573732063616e6e6f74206265207a65726f600082015250565b6000613849602083612df8565b915061385482613813565b602082019050919050565b600060208201905081810360008301526138788161383c565b9050919050565b7f4e487b7100000000000000000000000000000000000000000000000000000000600052601160045260246000fd5b60006138b982612e9f565b91506138c483612e9f565b92508282019050808211156138dc576138db61387f565b5b92915050565b6000815490506138f1816136ad565b9050919050565b60008190508160005260206000209050919050565b60006020601f8301049050919050565b600082821b905092915050565b60006008830261395a7fffffffffffffffffffffffffffffffffffffffffffffffffffffffffffffffff8261391d565b613964868361391d565b95508019841693508086168417925050509392505050565b6000819050919050565b60006139a161399c61399784612e9f565b61397c565b612e9f565b9050919050565b6000819050919050565b6139bb83613986565b6139cf6139c7826139a8565b84845461392a565b825550505050565b600090565b6139e46139d7565b6139ef8184846139b2565b505050565b5b81811015613a1357613a086000826139dc565b6001810190506139f5565b5050565b601f821115613a5857613a29816138f8565b613a328461390d565b81016020851015613a41578190505b613a55613a4d8561390d565b8301826139f4565b50505b505050565b600082821c905092915050565b6000613a7b60001984600802613a5d565b1980831691505092915050565b6000613a948383613a6a565b9150826002028217905092915050565b818103613ab2575050613b8a565b613abb826138e2565b67ffffffffffffffff811115613ad457613ad3613243565b5b613ade82546136ad565b613ae9828285613a17565b6000601f831160018114613b185760008415613b06578287015490505b613b108582613a88565b865550613b83565b601f198416613b26876138f8565b9650613b31866138f8565b60005b82811015613b5957848901548255600182019150600185019450602081019050613b34565b86831015613b765784890154613b72601f891682613a6a565b8355505b6001600288020188555050505b5050505050505b565b613b9582612ded565b67ffffffffffffffff811115613bae57613bad613243565b5b613bb882546136ad565b613bc3828285613a17565b600060209050601f831160018114613bf65760008415613be4578287015190505b613bee8582613a88565b865550613c56565b601f198416613c04866138f8565b60005b82811015613c2c57848901518255600182019150602085019450602081019050613c07565b86831015613c495784890151613c45601f891682613a6a565b8355505b6001600288020188555050505b505050505050565b60006080820190508181036000830152613c788187612e44565b9050613c8760208301866130ea565b613c9460408301856130ea565b613ca16060830184612f34565b95945050505050565b600081905092915050565b6000613cc082612ded565b613cca8185613caa565b9350613cda818560208601612e09565b80840191505092915050565b6000613cf28285613cb5565b9150613cfe8284613cb5565b91508190509392505050565b60006040820190508181036000830152613d248185612e44565b9050613d3360208301846130ea565b9392505050565b600081519050919050565b600082825260208201905092915050565b6000613d6182613d3a565b613d6b8185613d45565b9350613d7b818560208601612e09565b613d8481612e33565b840191505092915050565b6000608082019050613da46000830187612f34565b613db16020830186612f34565b613dbe60408301856130ea565b8181036060830152613dd08184613d56565b905095945050505050565b600081519050613dea81612d5e565b92915050565b600060208284031215613e0657613e05612d28565b5b6000613e1484828501613ddb565b91505092915050565b7f4e487b7100000000000000000000000000000000000000000000000000000000600052601260045260246000fd5b6000604082019050613e616000830185612f34565b613e6e60208301846130ea565b9392505050565b6000604082019050613e8a6000830185612f34565b613e976020830184613080565b939250505056fea2646970667358221220046650ec56c8094fc91c9cc528069aef9295f4f805a13cdba44ef2054720befc64736f6c63430008180033",
  "linkReferences": {},
  "deployedLinkReferences": {}
}